:020000040800F2
:10000000300001246D030008A9CA0008B1A500084A
:10001000A5CA000869110008810601080000000057
:10002000000000000000000000000000AD02000819
:100030003118000800000000090300084DD3000833
:100040008703000887030008870300088703000868
:100050008703000887030008870300088703000858
:10006000870300088703000887030008CD120008F3
:10007000DD120008ED120008FD1200080D13000843
:100080001D13000887030008870300087D2000086F
:100090008703000887030008870300088703000818
:1000A0008703000859D50008870300088703000864
:1000B00069D500088703000887030008B5A5000874
:1000C00087030008870300088703000887030008E8
:1000D000870300088703000887030008BDFD0008A8
:1000E000870300088703000800000000870300085A
:1000F0008703000887030008870300082D13000802
:1001000087030008870300088703000887030008A7
:100110008703000845DC0008870300088703000800
:100120003D1300084D1300088703000887030008EB
:1001300087030008E9180008870300088703000800
:1001400000000000000000000000000000000000AF
:10015000870300085D1300086D1300081D020108E5
:100160008703000887030008870300088703000847
:1001700087030008870300088703000800000000C9
:100180008703000887030008870300088703000827
:100190008703000887030008870300088703000817
:1001A0008703000887030008870300088703000807
:1001B00087030008870300088703000887030008F7
:1001C00087030008870300088703000887030008E7
:1001D00087030008870300088703000887030008D7
:1001E00087030008870300088703000887030008C7
:1001F00087030008870300088703000887030008B7
:1002000087030008870300088703000887030008A6
:100210008703000887030008870300088703000896
:100220008703000887030008870300080000000018
:100230008703000887030008000000008703000808
:100240008703000887030008870300088703000866
:100250008703000887030008870300088703000856
:100260008703000887030008870300088703000846
:1002700087030008870300088703000800000000C8
:1002800087030008870300088703000800000000B8
:100290000000000087030008DFF80CD000F016FB18
:1002A00000480047716C0108300001242C4B19688C
:1002B0000868B0E8F04F80F30988BFF36F8F4FF004
:1002C000000080F3118870470000000008480068B3
:1002D000006880F308884FF0000080F3148862B64D
:1002E00061B6BFF34F8FBFF36F8F00DF00BF00BF5A
:1002F00008ED00E0DFF80C00016841F470010160D6
:10030000704700BF88ED00E0EFF30980BFF36F8F07
:10031000134B1A681EF0100F08BF20ED108A20E959
:10032000F04F106009B44FF0500080F31188BFF314
:100330004F8FBFF36F8F24F08DF84FF0000080F3E4
:10034000118809BC19680868B0E8F04F1EF0100F5A
:1003500008BFB0EC108A80F30988BFF36F8F704735
:1003600008010024EFF3058070470000064880472D
:1003700006480047FEE7FEE7FEE7FEE7FEE7FEE78A
:10038000FEE7FEE7FEE7FEE7B1D4000899020008A9
:100390002DE9F05F0546002092469B4688460646BA
:1003A000814640241BE0284641464746224600F04D
:1003B00076F853465A46C01A914110D31146184652
:1003C000224600F05DF82D1A67EB01084F462246E1
:1003D0000120002100F054F817EB00094E41201EC7
:1003E000A4F10104DFDC484631462A464346BDE815
:1003F000F09F40EA01039B0703D009E008C9121FE0
:1004000008C0042AFAD203E011F8013B00F8013BCE
:10041000521EF9D27047D2B201E000F8012B491EFA
:10042000FBD270470022F6E710B513460A46044691
:100430001946FFF7F0FF204610BD30B504460020F6
:10044000034600E05B1C934203D2E05CCD5C401BA2
:10045000F8D030BD30B50B460146002020220124E3
:1004600009E021FA02F59D4205D303FA02F5491B82
:1004700004FA02F52844151EA2F10102F1DC30BD98
:10048000202A04DB203A00FA02F100207047914054
:10049000C2F1200320FA03F3194390407047202A49
:1004A00004DB203A21FA02F00021704721FA02F31E
:1004B000D040C2F120029140084319467047000025
:1004C0000FB4002300B589B00CA900910B996FF00F
:1004D0000042CB601E4B06931E4B07930423CDE9CD
:1004E00001321D4A089202466B46002000F0ACFA29
:1004F00009B05DF814FB70B586B006464FF0FF30CA
:100500000091CDE90101002015460C4604903246C9
:10051000694604A8FFF7D4FF02460498211825B1C4
:1005200008B1084600E020462860049800280DD055
:10053000002A02DD0098884208D0081B0094CDE90B
:1005400001043246694604A8FFF7BAFF06B070BD41
:10055000810C00089F0C0008150900082DE9FE4FCA
:10056000804681EA0300C00F0C46009021F0004154
:1005700023F00045B8EB0200A94105D240462146D0
:1005800090461C460B46024623F00040104347D0DD
:10059000270DC7F30A00C3F30A510290401A0190D5
:1005A00040286BDAC3F3130040F4801B0098924696
:1005B00020B10023D2EB030A63EB0B0B01985946E1
:1005C000C0F140025046FFF75BFF06460D4650461D
:1005D0005946019A00F08CF910EB080061410024A3
:1005E00087EA115284EAE7731A4340D0009A62B353
:1005F000019A012A4FEA075215DC001B61EB020148
:100600004FF0004202EA0752CDE90042001C41F5DA
:10061000801132462B4600F062FB03B0BDE8F08F3C
:1006200040462146F9E7001B61EB0201001C41F541
:10063000801300185B412018A2F5001747EB030157
:1006400040EAD570B6196D4111E06D084FEA3606E3
:1006500045EAC0754FEA0752001B61EB0201001C1E
:1006600041F5801149084FEA3000001951413246E6
:100670002B4603B0BDE8F04F00F022BB00980122EA
:1006800040000023D0EB020263EBE07300982146A8
:100690004FEAE074B8EB000061EB0401E9E783F096
:1006A00000435BE781F0004158E72DE9FE4F81EA06
:1006B000030404F0004421F0004100944FF0000BCB
:1006C00023F0004350EA01045ED052EA03045BD0F9
:1006D000C3F30A54C1F30A552C44A4F2F334019431
:1006E000A0FB0254C1F3130141F48011C3F31303BF
:1006F00043F4801301FB024400FB034E840A970A73
:1007000044EA815447EA8357A4FB076802958D0A9F
:1007100005FB07854FEA932C04FB0C542705029D2B
:100720004FEA065847EA1637B5EB08056EEB070C9B
:10073000870E920E47EA811742EA8312A7FB020155
:10074000B6EB0B0164EB00042B0D43EA0C335E188F
:1007500044EB1C50DA465146E7FB0201C5F3130493
:100760004FEA0B3343EA14534FEA0432019C43EA45
:100770000603A4F10C040294009CCDE900B400F03F
:10078000AEFA03B0BDE8F08F00200146F9E72DE98D
:10079000F04D81EA030404F0004B21F000451446BB
:1007A0004FF0000A23F0004150EA050220D054EA3D
:1007B00001021DD0C5F30A570246C5F31303C1F366
:1007C0001300C1F30A5640F4801543F48013A7EBDD
:1007D0000608101BD64608F2FD3873EB050002D35D
:1007E00008F1010801E092185B41B8F1000F03DA4B
:1007F00000200146BDE8F08D00204FF48011064630
:1008000084460EE0171B73EB050705D3121B63EB41
:10081000050306434CEA010C49084FEA30009218E0
:100820005B4150EA0107EDD152EA030012D082EA9F
:10083000040083EA0501084305D0101BAB4106D232
:100840000122002306E000224FF0004302E06FF097
:10085000010253101AEB06004CEB085110EB0A0092
:1008600041EB0B01BDE8F04D00F02ABAC1F30A528A
:10087000C1F3130140F2FF3341F480119A4202DACE
:1008800000200146704740F233439A42A2F23342BD
:1008900002DC5242FFF703BEFFF7F2BD30B5041E83
:1008A00071F1000404DB4FF00044404264EB0101AD
:1008B000141E73F1000405DB1C464FF00043524246
:1008C00063EB0403994208BF904230BD064C074DCC
:1008D00006E0E06840F0010394E807009847103410
:1008E000AC42F6D3FFF7DCFC985D0208B85D020865
:1008F000202A06DBCB17203A41FA02F043EAE073E4
:1009000006E041FA02F3D040C2F1200291400843D0
:1009100019467047C0B24FF4F05100F02FBA0000F2
:100920002DE9FF4F087883B09946FF2805D0491C70
:100930002D2804D00024002008E000200BE0012432
:10094000F9E700EB800003EB4000491C0B78FF2B1C
:10095000F7D104B1404200230293147819461D4692
:100960002D2C01D02B2C04D1521C2D2C13D0002463
:100970000294AA461478FF2C0FD00A25A3FB057811
:1009800001FB05814FF0000C03FB0C11521CE31915
:100990004AEB0101EEE70124EAE7814453EA010052
:1009A00002D019F5C87F06DA03980021C0E90011CA
:1009B00007B0BDE8F08F0025AE4E2F46DFF8B882B5
:1009C000184600F0EFF9CDE90001B9F1000002DAB4
:1009D000C9F1000400E004460023A74A1AEB030B08
:1009E00042EB045A12E0E00707D02A463346384665
:1009F0004146FFF75AFE074688462A4633461046C8
:100A00001946FFF752FE05460E466410002CEAD147
:100A1000DDE90001B9F1000F5A46534606DAFFF747
:100A2000B6FE3A464346FFF7B2FE05E0FFF73DFE4D
:100A30003A464346FFF739FE029A0AB181F0004177
:100A4000039AC2E90001B3E72DE9FF4F1F468DB0BD
:100A5000D7E901464FF0FF382E2045464FF00009F8
:100A60000B90B9696D1C0E988847396A8246884791
:100A70000028F6D1BAF1FF3F0AD024F4D064002E4A
:100A800011DDBAF12B0F08D0BAF12D0F0BD102E016
:100A9000404611B08DE744F48064B9696D1C0E982E
:100AA00088478246761E6946600501D52D2000E004
:100AB0002B208DF8000001F1010B0DF1200809E059
:100AC000B9696D1C0E98884782460F9844F40074EB
:100AD000761E0560002E02DDBAF1300FF0D00B99C2
:100AE0008A453ED144F0800406E00F99681CA9F1C4
:100AF000010944F400740860B9696D1C761E0E98F3
:100B0000884782463028F0D02BE00B998A4505D1E2
:100B1000200603D444F08004761E18E050460FF0FF
:100B2000F3FE08B30DF11301761E44F400748B45F7
:100B300008D2AAF130000BF8010B200607D5A9F165
:100B4000010003E0200602D409F101008146A0055E
:100B500002D50F99681C0860B9696D1C0E9888470A
:100B60008246002ED1DC53E0002E51DDBAF1650F34
:100B700002D0BAF1450F4BD1A00549D5B9696D1C1A
:100B800024F44074761E0E9888478246002E0CDDB1
:100B90002B2804D0BAF12D0F07D144F48074B96921
:100BA0006D1C0E9888478246761EE00501D52D21E2
:100BB00000E02B2108F8011BCDF82C8021E00DF17D
:100BC0002901761E44F4007488450CD2AAF1300045
:100BD00010F0FF0088F8000002D10B99884509D970
:100BE00008F1010806E0E00501D5244801E042F2E1
:100BF0000F708146B9696D1C0E98884782460F9820
:100C00000560002E04DD50460FF07EFE0028D6D190
:100C1000F9690E988847FF208BF8000088F80000DB
:100C20000020069007904B466A4608A906A8FFF7E1
:100C300077FEA00502D46FF001002AE714F0240F1C
:100C40000AD0E00714D1DDE906123868031D3B60C5
:100C50000068C0E900120BE0DDE9060100F0AEF823
:100C60000146E00704D13868021D3A60006801605F
:100C700028460EE7000014400000F03FF1D8FFFFC7
:100C8000426842B1016811F8013B23B1521EC0E92C
:100C90000012184670470121C160881E70474268E3
:100CA0005AB1C368016843B983688B4205D0491EB5
:100CB000521CC0E90012002070474FF0FF3070470F
:100CC00010B5141E73F1000408DA401C41F1000154
:100CD00092185B411A4301D120F0010010BD2DE9AB
:100CE000F04D92469B4611B1B1FA81F202E0B0FAA2
:100CF00080F220329046FFF7C3FB04460F4640EADD
:100D00000A0041EA0B0153465A46084313D01146E4
:100D100053EA010019D0C8F140025046FFF7BFFB6B
:100D200005460E46504659464246FFF7A9FB084382
:100D300005D0012004E020463946BDE8F08D0020B2
:100D4000054346EAE0762C4337430A986305E40AF4
:100D5000A0EB08000022FD0A44EA47540A3002D5FD
:100D600000200146E9E7010510196941DDE9084560
:100D700000196941BDE8F04DA2E700007F2801D9C4
:100D8000002208E0064A02EB5002C007127800D1A8
:100D9000120902F00F020120904008407047000045
:100DA0008C5B02080EB540F2334202920022CDE97C
:100DB00000221346FFF793FF03B000BD01F000438C
:100DC00030B421F0004150EA010206D00A0DA2F52C
:100DD0006072C1F31301002A02DC30BC00207047AE
:100DE000440F44EAC104C100E01830BC00EBC2501B
:100DF000AFF300800029A8BF7047401C490008BF1E
:100E000020F00100704710B4B0FA80FC00FA0CF03A
:100E100050EA010404BF10BC704749B1CCF1200472
:100E200021FA04F411FA0CF118BF012121430843FF
:100E3000A3EB0C01CB1D4FEA00614FEA102042BF2B
:100E4000002010BC704700EBC35010440029A4BF21
:100E500010BC7047401C490008BF20F0010010BCC6
:100E6000704770B58C1810F8015B15F0070301D1BD
:100E700010F8013B2A1106D110F8012B03E010F8FD
:100E8000016B01F8016B5B1EF9D12B0705D4002320
:100E9000521E0DD401F8013BFAE710F8013BCB1AC2
:100EA000921C03E013F8015B01F8015B521EF9D5B7
:100EB000A142D8D3002070BD70B5044651492068C6
:100EC000884203D050492068884208D14F480068C2
:100ED00000F4403008B1012009E0002007E04C4850
:100EE000006800F4403008B1012000E00020B8B1F3
:100EF00007F0C6FE05466068B0F5803F06D0B0F545
:100F0000003F04D0B0F5403F08D105E000BF606865
:100F1000000CB5FBF0F502E0AD0800E000BF2AE0F0
:100F20004FF4002006F0BEFD05466068C0F31101D5
:100F3000F9B980140C281CD2DFE800F01B06070862
:100F4000090A0B111315171900BF00BF00BF00BF1E
:100F500000BF6068800C4000B5FBF0F50AE02D0989
:100F600008E06D0906E0AD0904E0ED0902E02D0A94
:100F700000E000BF00BF05F039FB41F203018842E9
:100F800010D82448854206D92068806840F48070D3
:100F90002168886035E02068806820F480702168CE
:100FA00088602EE06D081C48854206D8206880685D
:100FB00020F440702168886023E0174885420BD9EF
:100FC0004000854208D82068806820F4407040F4D2
:100FD00080702168886014E0104885420BD9400079
:100FE000854208D82068806820F4407040F4007082
:100FF0002168886005E02068806840F440702168BE
:10100000886070BD00200240002102400823024099
:1010100008630258002D3101105E5F0020BCBE0045
:1010200070B5044620680AF058FE064620680AF0AB
:1010300059FE70B36EBB2068806800F00D00012877
:101040000AD120688168174A1140891C816000BF5D
:1010500003202168086009E0606D40F010006065C1
:10106000A06D40F00100A065012070BD05F0C4FA3C
:1010700005460FE005F0C0FA401B02280AD9606D52
:1010800040F010006065A06D40F00100A0650120F7
:10109000EBE705E02068806800F001000028E9D156
:1010A0000020E2E7C0FFFF7F70B5044620680AF029
:1010B00019FE00284CD1206880682649084048B1B4
:1010C000606D40F010006065A06D40F00100A0650B
:1010D000012070BD20680AF0E9FD05F08DFA054693
:1010E0001D4A2168914203D01C4A2168914201D1D6
:1010F0001B4900E01B4908460AF0E5FD0646174972
:101100002068884201D1144800E0206821688842A4
:1011100000D0E6B915E020680AF0E4FD10B92068B7
:101120000AF0C4FD05F068FA401B022809D9606D79
:1011300040F010006065A06D40F00100A065012046
:10114000C7E72068006800F001000028E3D000BF76
:101150000020BEE73F000080002002400021024046
:10116000002302400063025800BFFEE72DE9F04172
:1011700006460C461746254806600020234948606D
:1011800088604FF40020C8600020086148618861D1
:10119000C86108621E48002101604160002C0FDD1B
:1011A000254640F6C410854201DA284601E040F6A3
:1011B000C41005460120164908700020487018E048
:1011C00034B925460120124908700020487010E00B
:1011D000002C0EDA604205B240F6C410854201DAF6
:1011E000284601E040F6C410054601200849087071
:1011F0004870280A06498870CD700020C8710A46D8
:101200000249044804F0F8FABDE8F081380F0024E0
:1012100041000024381E002430B502460B4600244D
:101220000021184600BF13E0555C684000240BE025
:1012300000F0800525B1312585EA4005E8B201E0DE
:101240004506280E651CECB2082CF1DB4D1CE9B2FA
:101250000229E9DB30BD70B50446A56B284602F0D3
:101260009BF80120287170BD70B50446A56B284617
:1012700001F0C4FF0120287170BD70B50546AC6B4C
:10128000206940F004002061204602F087F8012028
:10129000207170BD70B50546AC6B206940F004004C
:1012A0002061204601F0ACFF0120207170BD70B5B7
:1012B0000446A56B284602F070F870BD70B5044670
:1012C000A56B284601F09BFF70BD000010B50248D9
:1012D00002F00AFB10BD0000C026002410B5024831
:1012E00002F002FB10BD00004826002410B50248A1
:1012F00002F0FAFA10BD0000481D002410B50248A3
:1013000002F0F2FA10BD0000E024002410B50248FB
:1013100002F0EAFA10BD00005825002410B502487A
:1013200002F0E2FA10BD0000981C002410B502483B
:1013300002F0DAFA10BD0000701F002410B5024858
:1013400002F0D2FA10BD0000C01D002410B5024802
:1013500002F0CAFA10BD00003827002410B5024878
:1013600002F0C2FA10BD0000B027002410B50248F8
:1013700002F0BAFA10BD0000D02500240146374A19
:101380000868904249D0354A18320868904244D0E3
:10139000324A3032086890423FD0304A48320868BA
:1013A00090423AD02D4A60320868904235D02B4A9C
:1013B00078320868904230D0284A903208689042CB
:1013C0002BD0264AA8320868904226D0244A0868C2
:1013D000904222D0224A1832086890421DD0204AFA
:1013E00030320868904218D01D4A4832086890424E
:1013F00013D01B4A6032086890420ED0184A7832E7
:101400000868904209D0164A90320868904204D089
:10141000134AA8320868904201D1012000E0002060
:10142000B0B10A78103A1823B2FBF3F000F00702CB
:101430000C4B9A5CCA65032805D90A686FF3090248
:10144000121D8A6503E00A686FF309028A6503E0EA
:10145000086820F0FF008865886D70471000024022
:1014600010040240D456020810B502682B4C0368E1
:10147000A34222D0294C14340368A3421DD0274C28
:1014800028340368A34218D0244C3C340368A34298
:1014900013D0224C50340368A3420ED01F4C643446
:1014A0000368A34209D01D4C78340368A34204D0DA
:1014B0001A4C8C340368A34201D1012300E00023BD
:1014C0008BB10378083B1424B3FBF4F1144B03EB0A
:1014D00081030366124B8033436601F01F0401232E
:1014E000A340836618E00378103B1824B3FBF4F1A3
:1014F0000C4B9A4204D80B4BA83B9A4200D30831BC
:10150000094B03EB81030366074B8033436601F00D
:101510001F040123A340836610BD00000854025835
:1015200000580258B8040240000802400179A9B3EB
:10153000082940D8204B02689A4222D01E4B14330F
:1015400002689A421DD01C4B283302689A4218D078
:10155000194B3C3302689A4213D0174B5033026840
:101560009A420ED0144B643302689A4209D0124B4F
:10157000783302689A4204D00F4B8C3302689A4247
:1015800001D1012200E000224AB14A1E0B4B03EBBD
:101590008202C266094A4032026708E00BE04A1E36
:1015A000074B03EB8202C266054A403202674A1EBD
:1015B000012393404367704708540258005902586A
:1015C00000090240014600208A69D2B98A6A32B114
:1015D000012A0DD0022A03D0032A10D10EE000BF49
:1015E000CA6A02F08072B2F1807F00D1012007E068
:1015F000CA6AB2F1C07F00D1012001E000E000BF63
:1016000036E08A69B2F5005F1BD18A6A32B1012ADD
:1016100007D0022A03D0032A11D10AE000BF01201B
:101620000EE0CA6A02F08072B2F1807F00D1012020
:1016300006E0CA6AB2F1C07F00D1012000E000BF1D
:1016400016E08A6A32B1012A05D0022A04D0032AA0
:101650000CD103E000BF00BF012008E0CA6A02F01D
:101660008072B2F1807F00D1012000E000BF00BF96
:1016700070470000F0B5846D856DD0E919767E6005
:10168000C66E16B1D0E91C767E60574F0668BE4222
:1016900049D0554F18370668BE4244D0524F3037B4
:1016A0000668BE423FD0504F48370668BE423AD027
:1016B0004D4F60370668BE4235D04B4F78370668CD
:1016C000BE4230D0484F90370668BE422BD0464FBE
:1016D000A8370668BE4226D0444F0668BE4222D0D4
:1016E000424F18370668BE421DD0404F303706685B
:1016F000BE4218D03D4F48370668BE4213D03B4F1C
:1017000060370668BE420ED0384F78370668BE4252
:1017100009D0364F90370668BE4204D0334FA83701
:101720000668BE4201D1012600E00026DEB190F835
:101730005C6006F01F073F26BE40A660066836685C
:1017400026F4802607683E60066873608668402E2F
:1017500004D10668B2600668F16044E00668B160D2
:101760000668F2603FE0224F0668BE4222D0204F5A
:1017700014370668BE421DD01D4F28370668BE428A
:1017800018D01B4F3C370668BE4213D0184F503755
:101790000668BE420ED0164F64370668BE4209D0B6
:1017A000134F78370668BE4204D0114F8C37066855
:1017B000BE4201D1012600E00026A6B190F85C608F
:1017C00006F01F070126BE406E60066873608668DB
:1017D000402E04D10668B2600668F16003E0066836
:1017E000B1600668F260F0BD1000024010040240D3
:1017F0000854025810B520220349A1F1200021F01D
:1018000079FE00F003F810BD4D03002410B505A1CA
:1018100006480EF047FFC4B22146044822F080F982
:1018200010BD000021520D0A000000006D030024CD
:10183000704710B5002210E002EB4204036903EB8D
:10184000C40100230B604B608B60CB600B614B616C
:1018500000F12C0343F82210521C042AECD300247C
:10186000C46304644464C46484640324036803F5A7
:101870008053C3F83041036803F580530469C3F80B
:101880001C41036903F5D863046804F58054C4F867
:10189000283110BD10B500220EE002EB4204C368EF
:1018A00003EBC40100230B604B608B60CB6000F145
:1018B000180343F82210521C042AEED30024846239
:1018C0000324036803F58053C3F82C41036803F530
:1018D0008053C468C3F81441036803F58053C46897
:1018E000C3F8204110BD000010B5024803F08EFA85
:1018F00010BD00002020002410B5A2B00446012035
:101900008DF83300002012908DF841008DF84300CF
:1019100001208DF828008DF856008DF83200002047
:101920008DF84C0001208DF8840040030F900020BA
:101930008DF85C0018908DF885008DF886004FF4C6
:10194000C360169000208DF830000B9001208DF8B8
:10195000350000208DF836008DF840001D901B905A
:1019600014908DF864008DF87A0001208DF8420003
:101970002020209001208DF8440000208DF8550093
:101980004FF0405009904FF480400E9000208DF8A9
:10199000310002201F9000208DF878008DF879002A
:1019A0008DF8540001208DF8340000201A90012099
:1019B0008DF8700009A9204600F094FA01208DF8F6
:1019C00004000290002000908DF81C008DF80D009E
:1019D0008DF80C004FF40010069000208DF81400D4
:1019E0004FF40010049000208DF81D004FF4067095
:1019F00008906946204600F017FA22B010BD00009A
:101A000070B506463068D0F8004224F4706407F0E0
:101A100037F905461348854205D31348854202D25B
:101A200044F400741AE01048854205D30F488542FB
:101A300002D244F4407411E00C48854203D30C48B0
:101A4000854200D20AE00A48854205D3094885420A
:101A500002D244F4807401E044F480643068C0F839
:101A6000004270BD002D3101C00E160200879303A5
:101A700000E1F50580D1F0080020704710B504F0B2
:101A8000BBFD10BD10B5024803F0B6FC002010BD30
:101A90002020002470B504460D46164633462A46DB
:101AA0002146044803F04FFC10B14FF0FF3070BDE9
:101AB0000020FCE72020002470B504460D461646A1
:101AC00033462A462146044803F002FE10B14FF087
:101AD000FF3070BD0020FCE7202000242DE9F047F6
:101AE00006460B46914606F118052A69D5F810C03E
:101AF000002755F822109C68C86800F00040B0F13B
:101B0000004F02D10220BDE8F087187800F00400F1
:101B1000C8B3C8686FF30F00D3F824A040EA0A00E6
:101B2000C860C86840F48030C8603068006E40F417
:101B30008010D6F800A0CAF86000187800F00800FD
:101B400008B3B3F82CA088686AF31F408860C8689F
:101B500040F40030C860C86820F44020D3F830A0BA
:101B600040EA0A00C8603068406E40F48010D6F841
:101B700000A0CAF864003068006D40F08060D6F8BC
:101B800000A0CAF85000187800F0100058B188681A
:101B90006FF30D00D3F818A040EA0A008860C86807
:101BA00040F08060C860187800F0040018B9187818
:101BB00000F01000F0B1C86840F08040C860C8680C
:101BC00040F00040C86000BF521C042A00D3121F1E
:101BD00000BF55F822107F1CC86800F00040B0F12B
:101BE000004F07D155F82C10C86820F00040C8609D
:101BF000022088E77F1C2068086088686FF30D006A
:101C0000D4F804A040EA0A008860A06868B1A4681B
:101C1000206848608868DFF80CA200EA0A00B4F87F
:101C200004A040EA0A40886007E000204860886815
:101C3000DFF8F0A100EA0A008860187800F01000D0
:101C4000A0B1C86820F4F000B3F820A040EACA4070
:101C5000C860C8686FF31100D3F81CA040EA0A00FE
:101C6000C860C86840F48020C8601FE0C8686FF38F
:101C70000E00D3F804A040EA0A00C860187800F00B
:101C8000010038B1C86820F44030D3F814A040EA0D
:101C90000A00C860187800F0200038B1C86820F049
:101CA0004060D3F810A040EA0A00C860187800F03D
:101CB000040038B1886820F44040D3F828A040EAF6
:101CC0000A008860C86840F00050C860C86820F00A
:101CD0008040C860C86840F00040C860187800F0D4
:101CE000020038B1C86820F06070D3F80CA040EA58
:101CF0000A00C8607EE0C86820F08050C86000BF5D
:101D0000521C042A00D3121F00BF55F82210C868C5
:101D100020F00050C860C86800F00040B0F1004FEB
:101D200017D1624655F822104FF000080DE0C86840
:101D300020F00040C86000BF521C042A00D3121FCC
:101D400000BF55F8221008F10108B845EFD3022072
:101D5000D9E67F1CA4682068086088686FF30D00CE
:101D6000D4F804A040EA0A008860A06868B1A468BA
:101D7000206848608868DFF8ACA000EA0A00B4F880
:101D800004A040EA0A40886007E0002048608868B4
:101D9000DFF890A000EA0A008860187800F01000D0
:101DA00060B1C8686FF31100D3F81CA040EA0A00C4
:101DB000C860C86840F48020C86013E0C8686FF34A
:101DC0000E00D3F804A040EA0A00C860187800F0BA
:101DD000010038B1C86820F44030D3F814A040EABC
:101DE0000A00C860C86840F00040C860C86820F0B9
:101DF0008040C860A06800287FF47DAFB9F1000F73
:101E000004D0886840F00040886003E0886820F0D3
:101E100000408860C86840F08050C8602A61002097
:101E200071E60000FFFF00C010B5036803F58053A2
:101E30001B6847F60204A3430C682343046804F5B7
:101E4000805423600C798B6843EA04330C7B43EAAB
:101E5000C432036803F580535B684DF20104A34369
:101E60001343046804F5805463604C7B0B6A43EAB7
:101E70000442036803F58053D3F80031164C234025
:101E80001343046804F58054C4F800310C7D0B69D9
:101E900043EA04134C7F43EA0432036803F580539A
:101EA000D3F804310D4C23401343046804F58054E7
:101EB000C4F804310C7F8B6943EAC472036803F5EC
:101EC0008053D3F80831064C23401343046804F5CB
:101ED0008054C4F8083110BD00C0FEFFEFEFC0FF12
:101EE000FFFFC07F10B50C688B6823430C7943EA71
:101EF000C4630C7B43EAC4534C7B43EA84538C7B1E
:101F000043EA4453CC7B43EA04530C7C0CB90124D0
:101F100000E0002443EAC4434C7C0CB9012400E0F7
:101F2000002443EA44438C7C43EA04434C69234342
:101F30008C6923430C7F43EA04334C7F43EAC42378
:101F40008C7F0CB9012400E0002443EA8423CC7F79
:101F500043EA442391F820400CB9012400E0002416
:101F600043EA042351F8244F23430C7943EA041332
:101F70008C6843EA040203681B683D4C234013430A
:101F8000046823600B7E5B060C7D43EA04630C7BD4
:101F900043EA84434C7B43EA44438C7B24390CB9A9
:101FA000012400E0002443EA04434C6B43EA0402AA
:101FB00003685B682F4C234013430468636091F807
:101FC00040404B6C43EA04220368DB6840F20F1484
:101FD000A34313430468E36091F854400B6D43EA54
:101FE000440391F84C400CB9012400E0002443EA7A
:101FF000C41331F8484F43EA044203681B6F4FF69D
:102000000D7423401343046823678B7B4C7B43EAA6
:1020100044020368D3F8903023F0030313430468A9
:10202000C4F890300368D3F8003D23F072030C69C4
:1020300023430468C4F8003D0C7E4B6948390CB951
:10204000012400E0002443EA841391F8614043EA4C
:10205000041391F8624043EAC4020368D3F8303DA8
:1020600023F07B0313430468C4F8303D10BD000027
:10207000838004000080F8C07047000010B502485B
:1020800003F036FD10BD0000381E002410B50146D7
:102090004A6B0868D0F884004FF6FC74A04340EA0D
:1020A00082000C68C4F884000868D0F8840020F42A
:1020B0007F04088F44EA00400C68C4F88400886BF1
:1020C00002440868D0F888004FF6FC74A04340EA48
:1020D00082000C68C4F888000868D0F8880020F4F2
:1020E000FE04888F44EA00400C68C4F88800C86B7E
:1020F00002EB40020868D0F8A0004FF6FC74A04341
:1021000040EA82000C68C4F8A0000868D0F8A0007B
:1021100020F4FE044020405A44EA00400C68C4F811
:10212000A000D1E9104004FB00220868D0F8B000FC
:102130004FF6FC74A04340EA82000C68C4F8B0007B
:102140000868D0F8B00020F4FE04B1F8480044EA72
:1021500000400C68C4F8B000D1E9124004FB002232
:102160000868D0F8AC004FF6FC74A04340EA820047
:102170000C68C4F8AC00D1E9144004FB00220868E4
:10218000D0F8F0004FF6FC74A04340EA82000C68DF
:10219000C4F8F0000868D0F8F00020F47C14B1F81E
:1021A000580044EA00400C68C4F8F000886D02EB67
:1021B00040020868D0F8C0004FF6FC74A04340EA23
:1021C00082000C68C4F8C0000868D0F8C00020F491
:1021D0007C14B1F85C0044EA00400C68C4F8C0000C
:1021E0000868D0F8C00020F07C5491F8600044EA00
:1021F00000600C68C4F8C0002A4C486B04EB8000F7
:10220000C866CC6E886B04EB80040C670C6FC86BDF
:1022100004EBC0044C67D1E9100460434C6F04EB3D
:1022200080048C67D1E9120460438C6F04EB800456
:10223000CC67D1E914046043CC6F04EB80048020A8
:1022400044504458886D04EBC004842044508C6E84
:10225000C86D60438424645804EB80048820445093
:102260008C6E086E60438824645804EB80049020D0
:10227000445040580C4CA04209D99831486840F06D
:1022800020004860032001F89809012010BDCB6EA2
:1022900002E0002018601B1D902040589842F8D89A
:1022A0000020F3E700AC0040FCD300402DE9F041F2
:1022B000054614461E46D1F804C0BCF1000F0AD1F1
:1022C000D1F810C0D1F808804CEA080CB1F80080B1
:1022D0004CEA88430BE0D1F810C04CF0804CD1F8A8
:1022E00008804CEA080CD1F800804CEA080391F809
:1022F0002080D1F81CC04CEA086CD1F818804CEA58
:10230000080CD1F814804CEA080CD1F80C804CEA87
:102310000807D5F868C00CFB06FCD5F8848008EBEC
:102320008C021360121D1760121D002019E000F1CD
:10233000030C14F80CC04FEA0C6800F1020C14F8FE
:102340000CC048EA0C4800F1010C14F80CC048EA33
:102350000C2C14F800804CEA080CC2F800C0121DC6
:10236000001DDFF81880D1F80CC008EB1C4C9CF85D
:1023700000C08445DBD8BDE8F08100007856020833
:10238000F8B504460D4616460020009000BF94F8AC
:102390005000012801D10220F8BD012084F850002E
:1023A00000BF2046FEF73CFE0746A7BB606D20F449
:1023B000885040F002006065206805F4803141F0EB
:1023C000004106F0804211438268194B1A401143C4
:1023D000816000BF13E00098401C009015490098F0
:1023E00088420CD3606D20F0020040F01000606560
:1023F00000BF002084F8500000BF0120CCE7206817
:102400008168C90F0029E6D1606D20F0020040F01C
:102410000100606504E0FFE7606D40F0100060655A
:1024200000BF002084F8500000BF3846B4E7000029
:10243000C0FFFE3F00F8C3252DE9F04399B00446E4
:102440000E464FF00008306800B100BF00BF94F89E
:102450005000012803D1022019B0BDE8F08301200B
:1024600084F8500000BF47492068884202D146489E
:10247000009001E000200090009850B9606D40F09D
:102480002000606500BF002084F8500000BF0120DC
:10249000E2E7009809F03AFC0746206809F036FCAC
:1024A000002861D1002F5FD136492068884203D0CF
:1024B00035492068884201D1344800E03448054657
:1024C000306858B3A86820F4404071680843A86099
:1024D0002C492068884203D02B492068884201D1CA
:1024E0002A4800E02A482949884209D1254809F0AC
:1024F000FEFB8146244809F0FAFB49EA000002E0AD
:10250000244809F0F4FB70BBB16830680843A9683F
:1025100040F61F7291430843A8602BE0A86820F49E
:102520004040A86017492068884203D016492068B7
:10253000884201D1154800E015481449884209D164
:10254000104809F0D4FB81460F4809F0D0FB49EA56
:10255000000002E00F4809F0CAFB20B9A86840F665
:102560001F718843A86005E0606D40F02000606541
:102570004FF0010800BF002084F8500000BF404623
:102580006AE70000002002400021024000230240D0
:1025900000630258006002582DE9F84F04460D46CA
:1025A0004FF0000A0020009094F83800012800D174
:1025B00000E000BFF749E868884200D00EE0F64925
:1025C0002068884200D100BFF4492068884200D1C9
:1025D00000BFF3492068884200D100BF00BF94F8D3
:1025E0005000012802D10220BDE8F88F012084F8B4
:1025F000500000BF206809F084FB00287ED12068CD
:10260000C1692868C0F3130018B92868C0F3846052
:1026100004E0286890FAA0F0B0FA80F000F01F0201
:102620000120904001432068C1612168D5E9002064
:1026300001F1300CC0F3012B0CEB8B03D3F800C07D
:1026400000F01F0E4FF01F0B0BFA0EFB2CEA0B0CC9
:1026500000F01F0BC2F3846E0EFA0BFE4CEA0E0C58
:10266000C3F800C000BF206809F04BFB814620681A
:1026700009F02EFB8046B9F1000F6FD1B8F1000FC1
:10268000FBD1AA682968206809F056FBC548006894
:1026900000F07040B0F1805F07D168692168C968B7
:1026A000C1F382014900884014E02068C06800F04E
:1026B000100038B968692168C968C1F3820149000E
:1026C000884007E068692168C96801F0100189083D
:1026D0004900884007462869042840D020682A68B5
:1026E000296900F1600C0CEB8103D3F800C00CF0F9
:1026F000004C02F0F84B4BEA070B00E0C9E14CEA52
:102700000B0CC3F800C000BF20686A7E2969012A4B
:1027100001D1D20700E00022134600F1600C0CEB5F
:102720008102D2F800C02CF0004C4CEA030CC2F835
:1027300000C000BF20682B7E2969012B01D1DB027C
:1027400000E000231A46036923F4F04301F01F0C54
:1027500002FA0CFC43EA0C03036100BF37E0206877
:10276000006E00F0F8402978B0EB816F05D1206849
:10277000006E20F00040216808662068406E00F07E
:10278000F8402978B0EB816F05D12068406E20F0C9
:102790000040216848662068806E00F0F840297883
:1027A000B0EB816F05D12068806E20F00040216879
:1027B00088662068C06E00F0F8402978B0EB816F21
:1027C00005D12068C06E20F000402168C8662068EE
:1027D00009F088FA002870D12068EA682968D0F8E2
:1027E000C0C0C1F313032CEA030C02F0180B6E4BAC
:1027F00023FA0BF30B404CEA030CC0F8C0C000BF37
:102800006449E86888427DD12B68C3F313031BB980
:102810002B68C3F3846304E02B6893FAA3F3B3FA41
:1028200083F35B1C03F01F03092B3ED82B68C3F313
:1028300013031BB92B68C3F3846304E02B6893FA7A
:10284000A3F3B3FA83F35B1C03F01F034FF0010CF7
:102850000CFA03FC2B68C3F313031BB92B68C3F3F7
:10286000846304E02B6893FAA3F3B3FA83F35B1C4D
:1028700003F01F034CEA836C2B68C3F313031BB9EB
:102880002B68C3F3846304E02B6893FAA3F3B3FAD1
:1028900083F35B1C03F01F0303EB43034FF0000BB8
:1028A0004BEA03534CEA030341E02B68C3F31303E1
:1028B00023B92B68C3F3846305E0A8E02B6893FA7F
:1028C000A3F3B3FA83F35B1C03F01F034FF0010C77
:1028D0000CFA03FC2B68C3F313031BB92B68C3F377
:1028E000846304E02B6893FAA3F3B3FA83F35B1CCD
:1028F00003F01F034CEA836C2B68C3F313032BB95B
:102900002B6800E018E0C3F3846304E02B6893FABB
:10291000A3F3B3FA83F35B1C03F01F030A3B03EB3F
:1029200043034FF0007B4BEA03534CEA0303194681
:10293000AA68206809F000FA286800F00040002822
:1029400065D0154A2168914203D0144A216891420A
:1029500001D1164900E016490846816801F0E07689
:1029600000BF0D492068884203D00C492068884286
:1029700001D10E4800E00E480C4988421AD10648A1
:1029800009F0B0F98346054809F0ACF94BEA0000BC
:1029900013E000000000FF47002002400021024039
:1029A000006002580010005CFFFF0F00002302408F
:1029B000006302583D4809F095F9E8BB3C49286896
:1029C000884225D106F4000010BB384920688842AF
:1029D00065D1384B22689A4203D0374B22689A421D
:1029E00001D1364A00E0364A104646F4000109F0AB
:1029F000B7F9344800683449B0FBF1F0400000906A
:102A000002E00098401E009000980028F9D146E0AE
:102A10002E492868884219D106F08070B0B9234940
:102A2000206888423BD1234B22689A4203D0224B34
:102A300022689A4203D100E024E0204A00E0204AC4
:102A4000104646F0807109F08BF928E0204928688B
:102A5000884224D106F4800008BB144920688842CB
:102A60001DD1144B22689A4203D0134B22689A421C
:102A700001D1124A00E0124A104646F4800109F0E2
:102A80006FF90CE0606D40F0200060654FF0010AC6
:102A900005E0606D40F0200060654FF0010A00BF66
:102AA000002084F8500000BF50469DE500600258A9
:102AB000000084CB0020024000210240002302409D
:102AC00000630258FC000024400D0300000052C7C0
:102AD0000000B8CF01460868006C70472DE9F84F38
:102AE00004464FF000090020009014B90120BDE811
:102AF000F88FE06818B1207F012800D100BF606D19
:102B000030B9204600F030F90020A06584F850006C
:102B100020688168C1F3407131B120688168874ABB
:102B20001140816000BF00BF206809F0E5F8A0B93E
:102B300020688168824A114041F08051816000BF65
:102B4000804800688049B0FBF1F0009002E00098F6
:102B5000401E009000980028F9D1206809F0CCF8B8
:102B600048B9606D40F010006065A06D40F0010054
:102B7000A0654FF00109206809F0C3F80646606DB2
:102B800000F0100000287DD1002EFCD1606D20F4F3
:102B9000807040F002006065206809F0A3F878BBFF
:102BA0006A492068884203D069492068884201D177
:102BB000684800E068486749884209D1634809F0DD
:102BC00091F88246624809F08DF84AEA000002E076
:102BD000624809F087F898B95C4B22689A4203D0A2
:102BE0005B4B22689A4201D15A4A00E05A4A104689
:102BF0006168826822F47C120A43826000BF00BFD1
:102C000003F0F4FC41F2030188420ED9A0681028B9
:102C10000BD1607D216B41EA4030A168084340F050
:102C20000C01207F41EA004508E0607D216B41EA0C
:102C30004030A1680843217F40EA0145207F0128F8
:102C400003D1208C401E45EA4045606A28B1A08C23
:102C500000F47870A16A084305432068C0684049C1
:102C6000084028432168C860206809F04AF8804677
:102C7000206809F02DF80746B8F1000F3BD1D7BB0B
:102C8000207D00E051E0E16A41EA80352068C068BB
:102C900044F20301884328432168C86094F838004F
:102CA000012817D1606A08B1A06A00B900BFA08FDF
:102CB000401E012141EA0041206C0843616C084339
:102CC000A16C084321680969264A1140084321681C
:102CD000086105E02068006920F0010021680861B2
:102CE0002068006920F07040616B0843216808612A
:102CF0002046FEF7E1F8E068012809D12068006B62
:102D000020F00F00A169491E08432168086305E00F
:102D10002068006B20F00F0021680863606D20F0D0
:102D2000020040F00100606505E0606D40F01000B9
:102D300060654FF001094846D9E60000C0FFFF5F1B
:102D4000C0FFFF7FFC000024400D03000020024074
:102D50000021024000230240006302580060025834
:102D600003C0F0FF1EF800FC10B586B00446142125
:102D700001A8FDF757FB30492068884246D100BFC3
:102D80002E48006840F020002C4908600846006882
:102D900000F02000009000BF00BF00BF27480830AF
:102DA000006840F0200025490831086008460068A6
:102DB00000F02000009000BF00BF4FF400600190C1
:102DC000032002900020039001A91D4803F004FB9A
:102DD0001C481D4908600920486000211A4881608C
:102DE000C1604FF4806101614900416189008161E6
:102DF0000021C1610162416201F0F2FA08B1FFF7FE
:102E00003BF900BF1048E064846313E00F49206879
:102E100088420FD100BF09480830006840F0807038
:102E20000649083108600846006800F0807000908C
:102E300000BF00BF06B010BD00200240D8440258B9
:102E40000014025888000240981C002400600258B8
:102E50002DE9F04704460F46504A2168914203D0BD
:102E60004F4A2168914201D14E4900E04E4908463F
:102E700008F029FF05462069082801D1082628E026
:102E80001DB1052D01D0092D0DD12068C06800F0BD
:102E9000010030B1606D40F0200060650120BDE8A8
:102EA000F087042615E03D4A2168914203D03C4A50
:102EB0002168914201D13B4900E03B49084608F0B6
:102EC000FDFE28B1606D40F0200060650120E6E75E
:102ED000042603F091FB804613E0781C88B103F0D0
:102EE0008BFBA0EB0800B84200D857B9606D40F0EA
:102EF0000400606500BF002084F8500000BF03207C
:102F0000CDE72068006830400028E6D0606D40F4CE
:102F100000706065206808F0FEFE98B1607D88B999
:102F20002068006800F0080008280BD1606D20F4CC
:102F300080706065606D00F4805018B9606D40F07D
:102F40000100606516492068884201D1134800E0FD
:102F500020682168884204D01DB1052D01D0092DBB
:102F600003D12068D0F80C9009E00D492068884210
:102F700001D10A4800E020688246DAF80C90082E59
:102F800003D108202168086005E009F4804010B9E9
:102F90000C2021680860002081E70000002002402A
:102FA0000021024000230240006302582DE9F04155
:102FB0000446474A2168914203D0464A216891421B
:102FC00001D1454900E04549084608F07CFE054628
:102FD000206808F096FE002877D100BF94F85000D2
:102FE000012802D10220BDE8F081012084F85000C0
:102FF00000BF2046FEF758F80646002E60D1606DEF
:1030000040F60161884340F4807060653149206872
:10301000884201D12E4800E020682168884200D013
:103020001DB9606D20F480106065606D00F4805003
:10303000B0F5805F04D1A06D20F00600A06501E02E
:103040000020A0651C202168086000BF002084F8D3
:10305000500000BF1F492068884201D11C4800E091
:1030600020682168884204D01DB1052D01D0092DAA
:103070000ED12068C06800F0007028B1606D20F4A7
:10308000005040F480506065206808F04DFE1DE05F
:10309000606D40F4801060650E492068884201D15F
:1030A0000B4800E020680746F86800F0007068B13F
:1030B000606D20F4005040F48050606506E004E04C
:1030C00000BF002084F8500000E0022630468AE766
:1030D0000020024000210240002302400063025809
:1030E00070B503460C4600201F2100BF0D1EA1F144
:1030F000010106D001F01F060125B5402540002D35
:10310000F4D08AB1082A0BD0102A05D0182A0CD185
:10311000072900D301200AE0082900D3012006E096
:10312000102900D3012002E001E0012000BF00BF10
:1031300040B91D686C611D68AD6825F01805154320
:103140001E68B56070BD000010B504460CB90120C2
:1031500010BD607F20B900202077204600F036F8AF
:1031600002206077207948B91748216848612068B3
:10317000806820F018002168886007E02046D4E9C4
:103180000212FFF7ADFF08B10120E1E7607920B935
:103190004FF0FF302168086102E021682069086172
:1031A0002068806820F060006169084321688860B9
:1031B0002068806820F08000A16908432168886049
:1031C000012060770020C3E7B71DC10408B5094A94
:1031D000016891420DD100BF0749096841F40021FF
:1031E000054A11601146096801F40021009100BFF1
:1031F00000BF08BD004C0258E044025870477047B9
:10320000704700002DE9F04704460D4616464FF082
:1032100000092869012800D100BF2868042800D1CE
:1032200000BF00BF6079012802D10220BDE8F0870D
:103230000120607100BF022020712868042855D148
:10324000EEB903F0D9F981460CE003F0D5F9A0EB13
:103250000900012806D9206940F0080020610320F8
:103260002071E3E72068406B4A4908400028ECD110
:10327000012001F0E9FBA8692168086419E00CE06D
:1032800003F0BAF9A0EB0900012806D9206940F043
:103290000800206103202071C8E72068406B00F01F
:1032A00000400028ECD1012001F0CEFBA869216884
:1032B00048642068806C06F0100240F2FF319140B3
:1032C000884306F01002E969914008432168886448
:1032D0002068C06C06F01002FF219140884306F080
:1032E0001002296A914008432168C86428690128AE
:1032F0000FD12068876B06F010011F20884087439C
:10330000D5F8148006F0100008FA00F00743206892
:1033100087632068C76B06F0100107208840874349
:10332000A96828680843E96840EA010806F0100126
:1033300008FA01F007432068C7632068006806F0B8
:1033400010024FF480419140884321680860206852
:10335000076806F0100140F6FE7088408743D5F8F4
:10336000048006F0100108FA01F0074320680760A6
:103370002068006806F01002C0219140884321684F
:1033800008600120207100BF0020607100BF00BFF5
:103390004CE700000080002070477047704710B570
:1033A00004460CB9012010BD207920B900206071BD
:1033B000204600F009F80220207100202061012041
:1033C00020710020EFE7000010B586B004461421FC
:1033D00001A8FDF727F837492068884267D100BF68
:1033E0003548006840F000503349086008460068DE
:1033F00000F00050009000BF00BF00BF2E4808380A
:10340000006840F001002C4908390860084600684F
:1034100000F00100009000BF00BF302001900320A9
:1034200002900020039001A9244802F0D5FF24480F
:1034300024490860432048604021224881600021DF
:10344000C1604FF48061016149004161890081617F
:103450004911C16100210162416200F0C1FF08B160
:10346000FEF70AFE00BF1748A060846300BF16483D
:1034700016490860442048604021144881600021BA
:10348000C1604FF48061016149004161890081613F
:103490004911C16100210162416200F0A1FF08B140
:1034A000FEF7EAFD00BF0948E060846300BF06B094
:1034B00010BD000000740040E844025800000258AB
:1034C00040000240481D002410040240C01D00249A
:1034D00038B50446002000902068009029B902F118
:1034E0000800009D2844009004E002F11400009DB3
:1034F0002844009000980360002038BD2DE9F04773
:1035000004460D4617469946DDF820804FF0000A24
:1035100000BF6079012802D10220BDE8F0870120B8
:10352000607100BF0220207135BB3F48A168C863AD
:103530003E48A16808643E48A168C86420680068E5
:1035400040F4805021680860B8F1000F06D0B8F14F
:10355000040F07D0B8F1080F0CD107E0206800F184
:10356000080A08E0206800F10C0A04E0206800F175
:10357000100A00E000BF26E02E48E168C8632E482C
:10358000E16808642D48E168C8642068006840F07C
:10359000805021680860B8F1000F06D0B8F1040F20
:1035A00007D0B8F1080F0CD107E0206800F1140A29
:1035B00008E0206800F1180A04E0206800F11C0A05
:1035C00000E000BF00BF6DB92068006840F4005003
:1035D000216808604B4652463946A06801F0BEF8A3
:1035E00006460CE02068006840F000502168086042
:1035F0004B4652463946E06801F0B0F8064600BF37
:103600000020607100BF4EB92068006805F010020C
:103610000121914008432168086003E0206940F0DF
:1036200004002061304678E757120008AF12000806
:103630007B12000869120008BD12000895120008EC
:1036400070B504460CB9012070BD94F8350002280D
:1036500003D0802060650120F6E79F4920688842FA
:1036600049D09D4918312068884244D09A49303168
:10367000206888423FD098494831206888423AD033
:10368000954960312068884235D093497831206867
:10369000884230D090499031206888422BD08E49A2
:1036A000A8312068884226D08C492068884222D0E0
:1036B0008A491831206888421DD0884930312068F5
:1036C000884218D0854948312068884213D0834900
:1036D0006031206888420ED0804978312068884265
:1036E00009D07E4990312068884204D07B49A831B6
:1036F0002068884201D1012000E00020F0B30420BE
:1037000084F835007449206888424BD072491831DA
:103710002068884246D0704930312068884241D0C4
:103720006D494831206888423CD06B49603120683F
:10373000884237D0684978312068884232D066495B
:103740009031206888422DD06349A8312068884292
:1037500028D062492068884224D060491831206806
:1037600088421FD05D493031206888421AD05B49B9
:1037700048312068884215D0584900E020E0603187
:10378000206888420ED0554978312068884209D097
:10379000524990312068884204D05049A8312068AD
:1037A000884206D12068006820F001002168086086
:1037B00090E02068006820F001002168086089E03E
:1037C0002068006820F00E002168086042492068E7
:1037D000884249D0404918312068884244D03E4947
:1037E0003031206888423FD03B49483120688842C8
:1037F0003AD0394960312068884235D0364978312D
:103800002068884230D034499031206888422BD0DB
:103810003149A8312068884226D030492068884242
:1038200022D02E491831206888421DD02B493031D2
:103830002068884218D0294948312068884213D02E
:1038400026496031206888420ED0244978312068AA
:10385000884209D0214990312068884204D01F490C
:10386000A8312068884206D12068006820F0010055
:103870002168086005E02068006820F001002168E8
:103880000860206E006820F48070216E0860A56DCD
:1038900094F85C0000F01F01012088406860D4E9C2
:1038A00019104860E06E40B1E06E006820F480704E
:1038B000E16E0860D4E91C10486000BF002084F865
:1038C000340000BF012084F83500206D10B120467F
:1038D000216D88470020B7E6100002401004024026
:1038E0000146486D704700002DE9F84F044600205E
:1038F0000090FE4800684FF41651B0FBF1FAA66D37
:10390000D4F858803768D8F80090F9492068884280
:1039100049D0F74918312068884244D0F449303101
:10392000206888423FD0F2494831206888423AD026
:10393000EF4960312068884235D0ED497831206800
:10394000884230D0EA499031206888422BD0E8493B
:10395000A8312068884226D0E6492068884222D0D3
:10396000E4491831206888421DD0E249303120688E
:10397000884218D0DF4948312068884213D0DD4999
:103980006031206888420ED0DA4978312068884258
:1039900009D0D84990312068884204D0D549A8314F
:1039A0002068884201D1012000E0002000287DD05D
:1039B00094F85C0000F01F0108208840384000287F
:1039C00068D0CB492068884249D0C949183120685D
:1039D000884244D0C6493031206888423FD0C4492B
:1039E0004831206888423AD0C14960312068884215
:1039F00035D0BF4978312068884230D0BC499031F9
:103A0000206888422BD0BA49A8312068884226D045
:103A1000B8492068884222D0B649183120688842C7
:103A20001DD0B44930312068884218D0B14948319E
:103A30002068884213D0AF496031206888420ED098
:103A4000AC4978312068884209D0AA499031206871
:103A5000884204D0A749A8312068884204D1206850
:103A6000006800F0040003E02068006800F008002F
:103A700080B12068006820F004002168086094F894
:103A80005C0000F01F0108208840B060606D40F0CD
:103A90000100606594F85C0000F01F01012088407F
:103AA0003840E8B392492068884200E0B8E24BD041
:103AB0008F4918312068884246D08D4930312068BE
:103AC000884241D08A494831206888423CD08849A0
:103AD00060312068884237D0854978312068884233
:103AE00032D083499031206888422DD08049A83156
:103AF0002068884228D07F492068884224D07D49A8
:103B00001831206888421FD07A49303120688842B5
:103B10001AD0784948312068884215D0754900E0AC
:103B200026E06031206888420ED0724978312068E2
:103B3000884209D06F4990312068884204D06D498D
:103B4000A8312068884204D12068406900F08000D4
:103B500002E020680068002050B194F85C0000F09A
:103B60001F0101208840B060606D40F00200606578
:103B700094F85C0000F01F01042088403840E8B34E
:103B80005B49206888424BD05949183120688842E7
:103B900046D0574930312068884241D05449483195
:103BA000206888423CD0524960312068884237D032
:103BB0004F4978312068884232D04D499031206891
:103BC00088422DD04A49A8312068884228D04949E6
:103BD0002068884224D047491831206888421FD085
:103BE00044493031206888421AD04249483120681F
:103BF000884215D03F496031206800E024E08842C7
:103C00000ED03C4978312068884209D0394990313A
:103C10002068884204D03749A8312068884204D1FE
:103C20002068006800F0020002E0206800680020C0
:103C300050B194F85C0000F01F0104208840B0608F
:103C4000606D40F00400606594F85C0000F01F01B6
:103C5000102088403840E8B325492068884251D078
:103C600023491831206888424CD0214930312068DE
:103C7000884247D01E4948312068884242D01C49BA
:103C80006031206888423DD01949783120688842E7
:103C900038D0174990312068884233D01449A83170
:103CA000206888422ED01349206888422AD01149C2
:103CB00018312068884225D00E493031206888426A
:103CC00020D00C494831206888421BD00949603116
:103CD000206800E04DE0884214D006497831206821
:103CE00088420FD003499031206805E0FC00002491
:103CF0001000024010040240884203D0FE492068B0
:103D0000884204D12068006800F0080003E02068C1
:103D1000006800F0040060B394F85C0000F01F013C
:103D200010208840B0602068006800F4802080B1D6
:103D30002068006800F4002028B9206CC8B1204633
:103D4000216C884715E0A06C98B12046A16C88478B
:103D50000FE02068006800F4807028B920680068CF
:103D600020F0080021680860206C10B12046216C0A
:103D7000884794F85C0000F01F01202088403840FC
:103D800000287DD0DD492068884249D0DB491831C0
:103D90002068884244D0D9493031206888423FD0D9
:103DA000D6494831206888423AD0D44960312068E9
:103DB000884235D0D14978312068884230D0CF4907
:103DC0009031206888422BD0CC49A83120688842A5
:103DD00026D0C949A8392068884221D0C6499039DF
:103DE000206888421CD0C44978392068884217D09E
:103DF000C14960392068884212D0BF4948392068DB
:103E000088420DD0BC4930392068884208D0BA4970
:103E100018392068884203D0B7492068884204D105
:103E20002068006800F0100003E02068006800F0DF
:103E3000020028B394F85C0000F01F0120208840A5
:103E4000B06094F8350004282DD12068006820F077
:103E50001600216808602068406920F08000216811
:103E60004861206C08B9A06C28B12068006820F077
:103E700008002168086094F85C0000F01F0100E071
:103E80003FE03F208840B06000BF002084F834004D
:103E900000BF012084F83500206D10B12046216D4F
:103EA0008847BDE8F88F2068006800F4802080B162
:103EB0002068006800F4002028B9606C08B3204630
:103EC000616C88471DE0E06BD8B12046E16B884704
:103ED00017E02068006800F4807068B92068006806
:103EE00020F010002168086000BF002084F8340032
:103EF00000BF012084F83500E06B10B12046E16B73
:103F00008847606D00287DD0606D00F00100E8B347
:103F1000042084F835007949206888424BD07749DD
:103F200018312068884246D0744930312068884270
:103F300041D072494831206888423CD06F49603195
:103F40002068884237D06D4978312068884232D065
:103F50006A499031206888422DD06849A83120688C
:103F6000884228D06449A8392068884223D0624911
:103F70009039206888421ED05F497839206888428D
:103F800019D05D4960392068884200E041E012D0D4
:103F900059494839206888420DD05749303920683E
:103FA000884208D0544918392068884203D05249C1
:103FB0002068884206D12068006820F0010021684E
:103FC000086005E02068006820F0010021680860B2
:103FD00000BF0098401C0090504500D905E02068C3
:103FE000006800F001000028F3D100BF00BF0020EE
:103FF00084F8340000BF2068006800F0010028B198
:10400000032000E00BE084F8350002E0012084F892
:104010003500E06C002802D02046E16C8847D9E1E9
:1040200037492068884222D03549143120688842B7
:104030001DD0334928312068884218D030493C319E
:104040002068884213D02E495031206888420ED013
:104050002B4964312068884209D029497831206889
:10406000884204D026498C312068884201D1012041
:1040700000E000200028D2D02068056894F85C0099
:1040800000F01F010420884000EA0900D0B305F0C9
:104090000400B8B394F85C0000F01F0104208840CD
:1040A000C8F8040005F4004080B105F4803030B950
:1040B000A06C0028B3D02046A16C88478AE1206C10
:1040C0000028ACD02046216C884783E105F0200011
:1040D000F0BB0A492068884252D00849183120684C
:1040E00088424DD0054930312068884248D0034984
:1040F00048312068884206E0B804024010000240BF
:10410000085402584FE03BD0B3492068884237D06A
:10411000B14918312068884232D0AF493031206827
:1041200088422DD0AC4948312068884228D0AB491C
:104130002068884224D0A9491831206888421FD0BD
:10414000A6493031206888421AD0A449483100E09D
:1041500023E02068884213D0A0496031206888425B
:104160000ED09E4978312068884209D09B49903111
:104170002068884204D09949A8312068884206D135
:104180002068006820F008002168086005E02068C9
:10419000006820F0040021680860206C10B32046FD
:1041A000216C884716E194F85C0000F01F010220A2
:1041B000884000EA0900E8B305F00200D0B394F8A3
:1041C0005C0000F01F0102208840C8F8040005F4DC
:1041D000004070B105F4803028B9606C10B1204601
:1041E000616C8847F6E0E06BF0B32046E16B8847EE
:1041F000F0E005F02000C0BB7749603920688842B4
:104200004DD0754948392068884248D072493039C4
:104210002068884243D070491839206888423ED0CF
:104220006D49206888423AD06B491831206888422D
:1042300035D000E04EE068493031206888422ED009
:10424000654948312068884229D0644920688842FD
:1042500025D0624918312068884220D05F4930312A
:10426000206888421BD001E06EE02DE05B494831B8
:104270002068884213D059496031206888420ED0A6
:10428000564978312068884209D0544990312068D5
:10429000884204D05149A8312068884206D120685C
:1042A000006820F014002168086005E020680068BC
:1042B00020F00A002168086000BF002084F8340064
:1042C00000BF012084F83500E06BE8B32046E16BC5
:1042D00088477FE094F85C0000F01F0108208840C8
:1042E00000EA090080B305F0080068B33A49603974
:1042F000206888424AD0384948392068884245D0E9
:10430000354930392068884240D03349183920680F
:1043100088423BD030492068884237D02E49183136
:104320002068884232D02C493031206888422DD014
:10433000294948312068884228D028492068884285
:1043400024D02649183100E044E0206888421DD07E
:10435000224930312068884218D0204948312068ED
:10436000884213D01D496031206888420ED01B4915
:1043700078312068884209D01849903120688842F5
:1043800004D01649A8312068884206D12068006808
:1043900020F01C002168086005E02068006820F01B
:1043A0000E002168086094F85C0000F01F010120F5
:1043B0008840C8F804000120606500BF002084F830
:1043C000340000BF012084F83500E06C10B12046B5
:1043D000E16C884700BF64E57000024010040240B1
:1043E0002DE9F041044602F007F9804614B9012096
:1043F000BDE8F081D4492068884249D0D2491831BB
:104400002068884244D0D0493031206888423FD06B
:10441000CD494831206888423AD0CB496031206884
:10442000884235D0C84978312068884230D0C649A2
:104430009031206888422BD0C349A8312068884237
:1044400026D0C2492068884222D0C049183120684D
:1044500088421DD0BD4930312068884218D0BB4900
:1044600048312068884213D0B849603120688842BA
:104470000ED0B64978312068884209D0B3499031CE
:104480002068884204D0B149A8312068884201D10F
:10449000012000E00020002873D0606A00B100BF56
:1044A00000BF002084F8340000BF022084F83500EB
:1044B000A5492068884249D0A3491831206888421C
:1044C00044D0A1493031206888423FD09E494831CC
:1044D000206888423AD09C4960312068884235D0B3
:1044E000994978312068884230D0974990312068C6
:1044F00088422BD09449A8312068884226D093491D
:104500002068884222D091491831206888421DD005
:104510008E4930312068884218D08C494831206853
:10452000884213D089496031206888420ED087497B
:1045300078312068884209D08449903120688842C7
:1045400004D08249A8312068884206D120680068DA
:1045500020F001002168086005E02068006820F074
:104560000100216808600DE002F046F8A0EB0800A9
:10457000052807D920206065032084F83500012034
:1045800036E745E02068006800F001000028EBD124
:10459000206805686E480540D4E902010843216996
:1045A000084361690843A1690843E1690843216A36
:1045B00008430543606A042803D1D4E90B0108438A
:1045C0000543206805602068456925F00705606A95
:1045D0000543606A04280DD1A06A0543E06A48B12A
:1045E0002046FCF7EFFF28B140206065012084F8E9
:1045F0003500FDE6206845612046FCF7BFFE064613
:1046000094F85C0000F01F013F208840B06073E028
:1046100050492068884222D04E491431206888428F
:104620001DD04C4928312068884218D049493C3176
:104630002068884213D047495031206888420ED004
:10464000444964312068884209D042497831206861
:10465000884204D03F498C312068884201D1012032
:1046600000E00020F0B300BF002084F8340000BF59
:10467000022084F835002068056837480540A068A6
:10468000402801D1102105E0A068802801D1C10196
:1046900000E00021E06841EAD001206941EAD00150
:1046A000606941EAD001A06941EAD001E06941EACC
:1046B000D001206A41EA10100543206805602549B1
:1046C0002068401A1421B0FBF1F08000E06520461C
:1046D000FCF754FE074694F85C0000F01F0101202F
:1046E000884000E001E0786006E04020606503203B
:1046F00084F8350001207BE62046FCF7B5FEA06873
:10470000802801D1002060602079216E0860D4E902
:1047100019104860606860B16068082809D82046B0
:10472000FCF704FF0020E16E0860D4E91C1048602B
:1047300003E00020E06620676067002060650120DC
:1047400084F83500002053E61000024010040240B7
:104750003F8010FE085402580F00FEFF2DE9F04183
:1047600004460D4616461F464FF0000814B90120B6
:10477000BDE8F08100BF94F83400012801D1022087
:10478000F6E7012084F8340000BF94F835000128D2
:104790007ED1022084F8350000206065A849206899
:1047A000884249D0A64918312068884244D0A4499B
:1047B0003031206888423FD0A14948312068884282
:1047C0003AD09F4960312068884235D09C49783181
:1047D0002068884230D09A499031206888422BD096
:1047E0009749A8312068884226D096492068884297
:1047F00022D094491831206888421DD09149303127
:104800002068884218D08F4948312068884213D0E8
:104810008C496031206888420ED08A4978312068FE
:10482000884209D0874990312068884204D0854960
:10483000A8312068884206D12068006820F0010075
:104840002168086005E02068006820F00100216808
:1048500008603B46324629462046FCF70BFF784964
:10486000206888424BD0764918312068884246D06B
:10487000734930312068884241D0714948312068FD
:1048800088423CD06E4960312068884237D000E0D1
:10489000C9E06B4978312068884230D0684990314E
:1048A000206888422BD06649A8312068884226D0EB
:1048B00064492068884222D06249183120688842C1
:1048C0001DD0604930312068884218D05D49483198
:1048D0002068884213D05B496031206888420ED03E
:1048E000584978312068884209D05649903120686B
:1048F000884204D05349A8312068884201D1012060
:1049000000E0002080B12068006820F01E0040F028
:10491000160021680860206CB0B12068006840F083
:104920000800216808600FE02068006820F00E0091
:1049300040F00A0021680860206C28B120680068F7
:1049400040F0040021680860206E006800F48030A8
:1049500028B1206E006840F48070216E0860E06E1F
:1049600028B1E06E006840F48070E16E0860344960
:104970002068884249D0324918312068884244D0A2
:104980002F493031206888423FD02D494831206876
:1049900088423AD02A4960312068884235D0284977
:1049A00078312068884230D025499031206888428B
:1049B0002BD02349A8312068884226D0214920687D
:1049C000884222D01F491831206888421DD01D49D5
:1049D00030312068884218D01A494831206888420E
:1049E00013D018496031206888420ED015497831BB
:1049F0002068884209D0134990312068884204D049
:104A00001049A8312068884206D12068006840F02B
:104A100001002168086010E02068006840F0010093
:104A20002168086009E000BF002084F8340000BF5E
:104A30004FF4006060654FF00108404698E60000C2
:104A4000100002401004024070B5044601F0D4FD8D
:104A500006462546681C10B104480078054400BF8E
:104A600001F0CAFD801BA842FAD370BDF8000024F3
:104A700070B5054605F12C02536952F8231096696A
:104A8000906908B9012070BDD06900B1761C00247E
:104A900023E0086908604FF08070C860486928B159
:104AA00048698860C86840F00070C860C86840F015
:104AB0000040C860106A18B1C86840F08040C86003
:104AC0009069401EA04207D900BF5B1C042B00D395
:104AD0001B1F00BF52F82310641CB442D9D32868AE
:104AE00000F58050C0F828110020906100BFCAE78F
:104AF000704730B504460D4604F12C0050F82510DF
:104B00000AB1042D02D30120E06530BD0A600A61BC
:104B1000C86840F08070C8602BB18B604B61C8687A
:104B200040F00070C860C86840F00040C8600020D5
:104B3000EBE77047024609B901207047106800682A
:104B400000F00C00C86210680068C0F3001081F823
:104B500028001068006800F0600048621068006873
:104B6000C0F3002080F0010081F820001068006888
:104B7000C0F34020C87710680068C0F3802080F040
:104B80000100887710680068C0F3C020487710687B
:104B90000068C0F3003008771068006800F4005027
:104BA00088611068006800F48040486110680068FF
:104BB000C0F30040887410680068C0F3404080F083
:104BC0000100487410680068C0F3C04080F0010024
:104BD000087410680068C0F30050C873106800685B
:104BE000C0F34050887310680068C0F38050487369
:104BF00010680068C0F3C05008731068006800F0C7
:104C0000E060886010680068C0F3C06008711068D8
:104C1000006800F0E040086010684068C0F30D00D4
:104C2000486310684068C0F3004080F0010081F8DC
:104C3000320010684068C0F3404081F831001068CD
:104C40004068C0F3804081F8300010684068C0F3CD
:104C5000006081F8380010684068C0F34460C863A1
:104C60001068C068C0F3002081F840001068C06878
:104C700000F00F0048641068006FC0F3400081F836
:104C800054001068006FC0F3C01080F0010081F87C
:104C90004C001068006F00F0700008651068006F2D
:104CA000000C88641068D0F8900000F0010081F8D2
:104CB00056001068D0F89000C0F3400081F855000D
:104CC0001068D0F8000D00F0720088651068D0F808
:104CD000300D00F02300C8651068D0F8300DC0F327
:104CE000C00081F862001068D0F8300DC0F30010E9
:104CF00081F861001068D0F8300DC0F3801080F0AA
:104D0000010081F86000002017E72DE9F84F054603
:104D10008A4605F12C07D7F814800020009057F838
:104D2000286054461CB90120E865BDE8F88FB869D1
:104D300048B9284600F0DCF908B90120F5E7D7F8B2
:104D4000148057F828604FF0000B1CE03069206099
:104D500068696060706920B1A468706920606869E2
:104D60006060F068C0F30E00009000BF08F1010819
:104D7000B8F1040F01D3A8F1040800BF57F8286068
:104D8000A4680BF1010BB869401E5845DED8F068E5
:104D9000C0F30E010098A1EB00093069206068693A
:104DA000484502D3C4F804900DE0706948B16869C1
:104DB0006060A468706920606869A9EB00006060A9
:104DC00001E00120B1E70020AFE72DE9F041804686
:104DD0000E4608F12C046569A06930B9404600F020
:104DE00087F910B90120BDE8F08100BFA069401E1D
:104DF0000544042D00D32D1F00BF54F82570F8681A
:104E0000C0F30E0030600020EDE7000010B504464E
:104E1000206800F58050D0F8600100F04000402884
:104E200012D1206800F58050D0F8340100F0400025
:104E3000402809D1204600F0C3FA48F2400120681A
:104E400000F58050C0F86011206800F58050D0F85F
:104E5000600100F0010088B1206800F58050D0F8B2
:104E6000340100F0010048B1204600F02EFC48F269
:104E70000101206800F58050C0F86011206800F53D
:104E80008050D0F8600100F48040B0F5804F41D1EF
:104E9000206800F58050D0F8340100F48040B0F56F
:104EA000804F37D1E06D40F00800E065206800F5E4
:104EB0008050D0F8600100F48050B0F5805F17D1C9
:104EC000206800F58050D0F8600141F202110840DE
:104ED0002066206800F58050D0F8340120F440416D
:104EE000206800F58050C0F83411E02060650EE0C5
:104EF000206800F58050D0F8600100F4CD402066B5
:104F00004FF4CD41206800F58050C0F86011204674
:104F1000FFF7EEFD2068D0F8B00000F4C040B0F517
:104F2000C04F0AD12068D0F8B8006066E020606504
:104F3000204600F05CF9002060662068D0F8B000E0
:104F400000F0100010280AD12068D0F8C00000F04E
:104F50006000A066204600F0F5F90020A0662068F9
:104F6000D0F8B00000F0200020280AD12068D0F846
:104F7000C00000F00F00E0662046FFF7DAFD0020D9
:104F8000E0660648006800F4800030B14FF480000D
:104F900002490860204600F099FB10BDA8000058A7
:104FA00038B504460CB9012038BD606D10B92046F3
:104FB00000F01EF92320606500BF4B48006840F0F8
:104FC0000200494908600846006800F002000090AD
:104FD00000BF00BF207A18B9002004F047FB03E0AF
:104FE0004FF4000004F042FB206800F58050006898
:104FF00040F00101206800F58050016001F0FCFAEA
:1050000005460BE001F0F8FA401BB0F5FA7F05D930
:105010000420E065E02060650120C5E7206800F518
:105020008050006800F001000028EBD12046FCF71A
:10503000E7FC03F025FE2D49B0FBF1F0401E21688E
:10504000C1F8DC002046FCF757FC206800F58050D2
:10505000D0F8000120F4E01040F40021206800F5B1
:105060008050C0F80011207D00F0030028B101201D
:10507000E065E0206065012096E7206800F580503B
:10508000D0F8080147F6FE718843616940EA4101A2
:10509000206800F58050C0F808112046FCF7FAFBA4
:1050A0002046FCF7C6FB606800796168497940EAF0
:1050B00001202168C1F800036068C07800066168BB
:1050C000897840EA01406168497840EA01206168D6
:1050D000097808432168C1F804030020E065102026
:1050E0006065A06500205FE7F444025840420F006D
:1050F000F0B5074607F12C03196953F82120002564
:1051000000240026986908B10020F0BD3DE06D1C28
:10511000D06800F0805000B3641C012C00D10E4612
:1051200000BF491C042900D3091F00BF53F82120E8
:10513000D06800F0004058B9D06800F0804038B125
:105140000120D86100BF491C042900D3091F00BFFA
:1051500019615E619C610120D7E7D06800F00050C2
:1051600050B10E46012400BF491C042900D3091F79
:1051700000BF53F8212008E0641C00BF491C04292B
:1051800000D3091F00BF53F82120D06800F0004071
:1051900008B9042DBBD334B3314653F82120002580
:1051A0001FE0106910604FF08070D060506928B126
:1051B00050699060D06840F00070D060D06840F0D6
:1051C0000040D060186A18B1D06840F08040D060CC
:1051D00000BF491C042900D3091F00BF53F8212038
:1051E0006D1CA542DDD30020986100BF8DE770479C
:1051F00010B586B00446142101A8FBF713F94C49F9
:10520000206888427ED100BF4A48006840F40040D0
:10521000484908600846006800F40040009000BF5C
:1052200000BF00BF0846006840F4803008600846B0
:10523000006800F48030009000BF00BF00BF084647
:10524000006840F4003008600846006800F4003050
:10525000009000BF00BF00BF36480830006840F033
:1052600004003449083108600846006800F0040072
:10527000009000BF00BF00BF0846006840F001007A
:1052800008600846006800F00100009000BF00BF01
:1052900000BF0846006840F040000860084600680B
:1052A00000F04000009000BF00BF0220019002907B
:1052B0000020039004900B20059001A91E4801F0E6
:1052C0008BF886200190022002900020039003209A
:1052D00004900B20059001A9184801F07DF83020BA
:1052E00001900220029000200390032004900B20E4
:1052F000059001A9104801F06FF84FF4605001903B
:10530000022000E012E002900020039003200490AD
:105310000B20059001A90A4801F05EF80022052142
:105320003D2001F0CBFF3D2001F0B8FF06B010BDDD
:1053300000800240D8440258000802580000025879
:105340000018025870472DE9F04704460F46904672
:1053500099462068D0F8000200F0010010B1012049
:10536000BDE8F0872068D0F8005225F0787040EA58
:10537000475525F4F81040EA084545F00C0545F07E
:1053800001052068C0F8005201F036F9064607E032
:1053900001F032F9801BB0F57A7F01D90120DFE7F7
:1053A0002068D0F8000200F001000028F0D1206849
:1053B000D0F8040280B2C9F800000020D0E7000055
:1053C00010B504460248006813F068FD10BD0000E7
:1053D000D400002470B504460D460DB9012070BDFF
:1053E000A06D102805D129462046FCF77BFD002042
:1053F000F5E70120F3E7000070B506463068D0F805
:10540000004224F4706403F03BFC054613488542D7
:1054100005D31348854202D244F400741AE01048C0
:10542000854205D30F48854202D244F4407411E00E
:105430000C48854203D30C48854200D20AE00A4852
:10544000854205D30948854202D244F4807401E0C4
:1054500044F480643068C0F8004270BD002D310112
:10546000C00E16020087930300E1F50580D1F00815
:1054700030B50146002201F12C0050F82240486D61
:10548000102861D12320486500230EE0E06840F039
:105490008040E06000BF521C042A00D3121F00BFEE
:1054A00001F12C0050F822405B1C042BEED30125A7
:1054B000CD640868006840F002000D682860086844
:1054C000006840F001000D6828600868D0F8000D01
:1054D00040F001000D68C5F8000D086800F5805027
:1054E000D0F8040140F00105086800F58050C0F8CC
:1054F0000451086800F58050D0F8080140F001051B
:10550000086800F58050C0F80851086800F5805020
:10551000D0F8600140F48175086800F58050C0F84B
:1055200060511020486522208865086800F5805089
:10553000D0F834014DF2410528430D6805F580553A
:10554000C5F83401002030BD0120FCE710B501464C
:10555000CB6A486D00284AD023204865086800F5CA
:105560008050D0F8340148F24104A0430C6804F59F
:105570008054C4F83401086800F58050D0F8040164
:1055800020F00104086800F58050C0F80441086864
:1055900000F58050D0F8080120F00104086800F5FB
:1055A0008050C0F808410868006820F001000C68CD
:1055B00020600868D0F8000D40F001000C68C4F8C5
:1055C000000D0868006820F002000C6820600022CE
:1055D00004E0D86820F08040D860521C042AF8D338
:1055E0000024CC64102048658865002010BD01208F
:1055F000FCE72DE9F04104460F46154637B9E06D4A
:1056000040F00100E0650120BDE8F081606D1028E8
:1056100059D1002239462046FCF760FA28B1E06DE6
:1056200040F00200E0650120EEE704F11800A16AF5
:1056300050F8218000BFA06A401CA062A06A042824
:1056400002D3A06A001FA06200BF04F11800A16A83
:1056500050F82110206800F58050C0F8201100F0AB
:10566000CBFF064625E0206800F58050D0F86001A9
:1056700000F4805068B1E06D40F00800E0652068FB
:1056800000F58050D0F860012066E02060650120C0
:10569000BAE7681C68B100F0AFFF801BA84200D8D1
:1056A0003DB9E06D40F00400E06510206065012028
:1056B000AAE7D8F80C0000F000400028D3D1102051
:1056C00060650020A0E701209EE77047704700005A
:1056D0002DE9F04705460F46904699462868D0F8D0
:1056E000000200F0010010B10120BDE8F087286839
:1056F000D0F8004224F0787040EA475424F4F810BF
:1057000040EA084424F00C00041D44F001041FFA90
:1057100089F00D4908600D48C0F8004200F06CFFA8
:10572000064607E000F068FF801BB0F57A7F01D9DC
:105730000120DAE72868D0F8000200F00100002814
:10574000F0D100BFD1E70000048202400080024097
:1057500030B5034693F89840012C01D0022C3ED17D
:105760001868806D084030B91868C06D40F00100BD
:105770001D68E8650EE01868806D0840884206D113
:105780001868C06D40F002001D68E86502E0032063
:105790001D68E86501F4007030B11868D0F8E000C9
:1057A00010431D68C5F8E00001F4806030B118684E
:1057B000D0F8E40010431D68C5F8E40000BF186885
:1057C000406D0B4D0D4028431D6868650948006811
:1057D00040EA9170074D286000BF002030BDD3F82B
:1057E0009C0040F00200C3F89C000120F6E7000096
:1057F000FFFFCF3F14A800402DE9F04104460E46BC
:105800001746706800B900E000BF94F898000228BD
:1058100032D12068D0F8C00000F07C5040B9D4F8F4
:105820009C0040F02000C4F89C000120BDE8F081FD
:105830002068D0F8C40000F4001038B1D4F89C00FF
:1058400040F40070C4F89C000120EFE72068D0F815
:10585000C400C0F304452B463A4631462046FCF7C7
:1058600025FD0120A8402168C1F8D0000120A840F2
:10587000C4F894000020D9E7D4F89C0040F0080058
:10588000C4F89C000120D1E77047F0B5024692F8B9
:105890009860012E01D0022E43D1C868072800D19C
:1058A00000BF086818BBC868072800D000BFC868D8
:1058B00007280BD1088A4FF0605747EA0040CF69AC
:1058C00040EA07208F6940EA07040AE0087A800767
:1058D0000F7B40EAC7600F8A40EA07404F6940EA01
:1058E0000704D76E486807EB80031C6017E0C868A0
:1058F000072800D000BF0F7B086940EA4774C868DA
:10590000072801D18D6903E00F7A486940EA87755D
:10591000176F486807EBC0031C601B1D1D6000204B
:10592000F0BDD2F89C0040F00200C2F89C000120BB
:10593000F6E77047704700002DE9F04304460D4636
:105940009C46002694F89880B8F1020F70D1402D43
:1059500028D12068D0F8A00000F4FE0040B9D4F8A7
:105960009C0040F02000C4F89C000120BDE8F083BA
:105970002068D0F8A40000F07F0038B9D4F89C006B
:1059800040F48070C4F89C000120EFE72068D0F854
:10599000A400C0F30526606C7043D4F8749009EB42
:1059A00080013AE0412D27D12068D0F8B00000F402
:1059B000FE0038B9D4F89C0040F02000C4F89C00E8
:1059C0000120D3E72068D0F8B40000F07F0038B998
:1059D000D4F89C0040F48070C4F89C000120C5E716
:1059E0002068D0F8B400C0F30526E06C7043D4F80A
:1059F000789009EB800110E0206DA84207D8D4F818
:105A00009C0040F02000C4F89C000120AEE7606DCF
:105A10006843D4F87C9009EB8001086800F080406E
:105A20005060506828B90868C0F38A40106004E0EC
:105A300052E0086820F060401060086800F00050F4
:105A40009060086800F000401061091D088880B26D
:105A5000D061086800F47020D060086800F48010FD
:105A60005061086800F4001090610868C0F3066097
:105A700010620868C00F5062091D0F46002303E042
:105A8000F85C0CF803005B1CDFF85C90D06809EB55
:105A9000104000789842F3D8402D03D12068C0F818
:105AA000A86017E0412D03D12068C0F8B86011E06C
:105AB000202D06D20120A840D4F80090C9F8980003
:105AC00008E005F01F09012000FA09F0D4F8009061
:105AD000C9F89C00002049E7D4F89C0040F0080079
